:020000040000FA
:10000000600100206D020000710200007302000018
:10001000750200007502000075020000000000007B
:100020000000000000000000000000007502000059
:10003000750200000000000075020000750200005B
:1000400075020000750200007502000075020000D4
:1000500075020000750200007502000075020000C4
:1000600075020000750200007502000075020000B4
:1000700075020000750200007502000075020000A4
:100080007502000075020000750200007502000094
:100090007502000075020000750200007502000084
:1000A0007502000075020000750200007502000074
:1000B0007502000075020000750200007502000064
:1000C0007502000075020000750200007502000054
:1000D0007502000075020000750200007502000044
:1000E0007502000075020000750200007502000034
:1000F0007502000075020000750200007502000024
:100100007502000075020000750200007502000013
:100110007502000075020000750200007502000003
:1001200075020000750200007502000075020000F3
:1001300075020000750200007502000075020000E3
:1001400000000000000000000000000000000000AF
:1001500075020000750200007502000075020000C3
:10016000000000000000000000000000000000008F
:10017000000000000000000000000000000000007F
:10018000000000000000000000000000000000006F
:10019000000000000000000000000000000000005F
:1001A000000000000000000000000000000000004F
:1001B0007502000075020000750200007502000063
:1001C0007502000075020000750200007502000053
:1001D0007502000075020000750200007502000043
:1001E0007502000075020000750200007502000033
:1001F0007502000075020000750200007502000023
:100200007502000075020000750200000000000089
:100210007502000075020000750200007502000002
:1002200075020000750200007502000075020000F2
:1002300075020000750200007502000075020000E2
:1002400075020000750200007502000075020000D2
:1002500075020000750200007502000075020000C2
:1002600075020000750200007502000000F004B87D
:10027000FEE7FEE7FEE7000000F002F800F02CF8D1
:100280000AA090E8000C82448344AAF10107DA45F1
:1002900001D100F021F8AFF2090EBAE80F0013F017
:1002A000010F18BFFB1A43F001031847380500007F
:1002B000480500000023002400250026103A28BF2E
:1002C00078C1FBD8520728BF30C148BF0B607047C8
:1002D0001FB51FBD10B510BD00F0C5F81146FFF7E2
:1002E000F7FF00F019F800F0E3F803B4FFF7F2FFAE
:1002F00003BC00F0E7F800000138FDD170470000B2
:1003000002480349014A034B704700006000002087
:1003100060010020600000204A4800F069F94A4866
:1003200000F002FA4848C01D00F0FEF901214FF02C
:10033000402000F03DF90121444800F047F9022136
:10034000424800F043F90421404800F03FF90A23F5
:10035000022201214FF0402000F0CFF800220121BD
:100360003A4800F041F900220221384800F03CF9F7
:1003700000220421354800F037F961E001214FF0F7
:10038000402000F012F9002836D1012211462F48F2
:1003900000F02AF9002202212C4800F025F9002261
:1003A00004212A4800F020F92948FFF7A5FF002280
:1003B0000121264800F018F902221146234800F0D6
:1003C00013F900220421214800F00EF92148FFF71B
:1003D00093FF002201211D4800F006F900220221AE
:1003E0001A4800F001F904221146184800F0FCF800
:1003F0001948FFF781FF23E000220121134800F094
:10040000F3F802221146114800F0EEF80022042110
:100410000E4800F0E9F81148FFF76EFF00220121B5
:100420000A4800F0E1F800220221084800F0DCF858
:1004300000220421054800F0D7F80848FFF75CFFC8
:100440009CE70000803B8007010000200070004016
:100450005273CB0054615100A6D41C0155581400AE
:10046000704770477047754600F028F8AE460500A3
:100470006946534620F00700854618B020B5FFF7BF
:100480003FFFBDE820404FF000064FF000074FF05F
:1004900000084FF0000B21F00701AC46ACE8C009A2
:1004A000ACE8C009ACE8C009ACE8C0098D467047AB
:1004B0000446AFF300802046FFF717FF004870475F
:1004C0000000002001491820ABBEFEE72600020014
:1004D0007047D0F8003412F0010F0CBF8B430B4370
:1004E000C0F8003412F0020FD0F820240CBF22EA2A
:1004F00001011143C0F820147047D0F800C512F074
:10050000010F0CBF2CEA010C4CEA010CC0F800C52D
:10051000D0F804C512F0020F0CBF2CEA010C4CEA13
:10052000010CC0F804C5D0F808C512F0040F0CBFC8
:100530002CEA010C4CEA010CC0F808C512F0080FB7
:10054000D0F818250CBF8A430A43C0F81825D0F804
:100550000C2513F0010F0CBF8A430A43C0F80C2589
:10056000D0F8102513F0020F0CBF8A430A43C0F8DD
:100570001025D0F8142513F0040F0CBF8A430A434A
:10058000C0F81425D0F81C2513F0080F0CBF8A43BF
:100590000A43C0F81C25D0F82825002B14BF22EAF6
:1005A00001011143C0F82815704750F82100704729
:1005B00030B504460D460022FFF78BFF2946204642
:1005C000BDE8304008230122FFF797BF30B504464D
:1005D0000D460122FFF77DFF29462046BDE8304049
:1005E00008230122FFF789BF40F82120704700004F
:1005F0002DE9F041464F0446386810F0E04F05D031
:10060000386844490840B0F1805F04D114F0004FCD
:1006100018BFBDE8F081396E386F21F4800141F4D4
:10062000006540F400663D663E6715F0020F02D09B
:1006300014F0020F04D025EA040010F0010F19D0C5
:1006400064F0030005403D6616F0004F08D006F048
:10065000700030281CBF702030EA060006D102E08E
:100660003020A84302D14FF4805001E04FF4002025
:10067000FFF742FE25F4FE6043F2F07120F4405093
:10068000214041EA000824482449304021400843E1
:1006900004F0080140EAC1054020B86515F0004F9C
:1006A00018BF3D67C7F8608008BF3D671020FFF79F
:1006B00023FE1B4928F0030020F0F860214001438D
:1006C00025F0FC5004F0FC52104314F0804F08BF9A
:1006D00020F0804206D0134A20F48000224041F4EA
:1006E0008001024314F4006F0BD14FF400403B6DC6
:1006F00013F0400F01D1401EF9D121F4006122F422
:10070000006239663A67BDE8F0411020FFF7F4BD9A
:1007100000E00F400000FF708FDFFF7F302000807F
:100720000300C00700004040064A010F52F82110A4
:100730000A6883B2C0F3044003FA00F01043086073
:10074000704700006407000010E00F4014E00F4005
:100750001CE00F4010E00F4040E00F4044E00F402D
:1007600048E00F4000E10F4004E10F4008E10F4076
:1007700010E10F4014E10F4018E10F4020E10F405D
:1007800024E10F4028E10F4040420F0000201C00F0
:1007900080841E0000802500999E360000403800AD
:1007A00000093D0000803E0000004B00404B4C0023
:1007B00000204E00808D5B0000C05D000080700056
:1007C00000127A0000007D0080969800001BB700A0
:1007D0000080BB00C0E8CE00647ADA000024F40098
:1007E0000000FA00F4070000000000206001000093
:0407F000B40200004F
:040000050000026D88
:00000001FF
