:020000040000FA
:10000000680100206D020000710200007302000010
:10001000750200007502000075020000000000007B
:100020000000000000000000000000007502000059
:10003000750200000000000075020000750200005B
:1000400075020000750200007502000075020000D4
:1000500075020000750200007502000075020000C4
:1000600075020000750200007502000075020000B4
:1000700075020000750200007502000075020000A4
:100080007502000075020000750200007502000094
:100090007502000075020000750200007502000084
:1000A0007502000075020000750200007502000074
:1000B0007502000075020000750200007502000064
:1000C0007502000075020000750200007502000054
:1000D0007502000075020000750200007502000044
:1000E0007502000075020000750200007502000034
:1000F0007502000075020000750200007502000024
:100100007502000075020000750200007502000013
:100110007502000075020000750200007502000003
:1001200075020000750200007502000075020000F3
:1001300075020000750200007502000075020000E3
:1001400000000000000000000000000000000000AF
:1001500075020000750200007502000075020000C3
:10016000000000000000000000000000000000008F
:10017000000000000000000000000000000000007F
:10018000000000000000000000000000000000006F
:10019000000000000000000000000000000000005F
:1001A000000000000000000000000000000000004F
:1001B0007502000075020000750200007502000063
:1001C0007502000075020000750200007502000053
:1001D0007502000075020000750200007502000043
:1001E0007502000075020000750200007502000033
:1001F0007502000075020000750200007502000023
:100200007502000075020000750200000000000089
:100210007502000075020000750200007502000002
:1002200075020000750200007502000075020000F2
:1002300075020000750200007502000075020000E2
:1002400075020000750200007502000075020000D2
:1002500075020000750200007502000075020000C2
:1002600075020000750200007502000000F004B87D
:10027000FEE7FEE7FEE7000000F002F800F03AF8C3
:100280000AA090E8000C82448344AAF10107DA45F1
:1002900001D100F02FF8AFF2090EBAE80F0013F009
:1002A000010F18BFFB1A43F0010318476005000057
:1002B00080050000103A24BF78C878C1FAD85207E8
:1002C00024BF30C830C144BF04680C6070470000D0
:1002D0000023002400250026103A28BF78C1FBD84F
:1002E000520728BF30C148BF0B6070471FB51FBD04
:1002F00010B510BD00F08BF81146FFF7F7FF00F0C6
:1003000019F800F0A9F803B4FFF7F2FF03BC00F0FE
:10031000ADF800000138FDD17047000002480349E4
:10032000014A034B7047000068000020680100206C
:10033000680000202F4800F065F9002000F0FEF969
:100340002D4800F005FA2C48C01D00F001FA4FF0CE
:10035000101000F0FDF90221284800F00BF90321EC
:100360004FF0402000F0F8F80A23022203214FF05A
:10037000402000F096F800224021214800F008F9C2
:100380004FF4FA5240211E4800F01AF94FF47A62F5
:1003900041211B4800F025F901220321184800F0F3
:1003A00018F94021164800F006F921E001214FF02C
:1003B000402000F0CEF8D8B900BF01214FF0402016
:1003C00000F0C7F80028F8D00E48006800F5C860B3
:1003D0000C490860084641210268094800F001F90B
:1003E00008480068B0F5C85F02D1002005490860E0
:1003F000DCE70000803B8007010000200070004027
:10040000008002400000002070477047704775462A
:1004100000F028F8AE4605006946534620F0070074
:10042000854618B020B5FFF779FFBDE820404FF0B2
:1004300000064FF000074FF000084FF0000B21F0CE
:100440000701AC46ACE8C009ACE8C009ACE8C0099B
:10045000ACE8C0098D4670470446AFF300802046E3
:10046000FFF751FF0048704708000020014918209D
:10047000ABBEFEE7260002007047D0F8003412F051
:10048000010F0CBF8B430B43C0F8003412F0020F76
:10049000D0F820240CBF22EA01011143C0F8201437
:1004A0007047D0F800C512F0010F0CBF2CEA010C08
:1004B0004CEA010CC0F800C5D0F804C512F0020FD8
:1004C0000CBF2CEA010C4CEA010CC0F804C5D0F8B2
:1004D00008C512F0040F0CBF2CEA010C4CEA010C09
:1004E000C0F808C512F0080FD0F818250CBF8A43D1
:1004F0000A43C0F81825D0F80C2513F0010F0CBFE3
:100500008A430A43C0F80C25D0F8102513F0020FD7
:100510000CBF8A430A43C0F81025D0F8142513F005
:10052000040F0CBF8A430A43C0F81425D0F81C25D9
:1005300013F0080F0CBF8A430A43C0F81C25D0F8FB
:100540002825002B14BF22EA01011143C0F8281509
:10055000704750F82100704730B504460D46002220
:10056000FFF78BFF29462046BDE8304008230122D3
:10057000FFF797BF30B504460D460222FFF77DFF17
:1005800029462046BDE8304008230122FFF789BFF5
:10059000084401686FF352011143016012F0020F29
:1005A0001EBFB0210162090103D18C21016240F616
:1005B0000C0141627047425842F0010242507047BC
:1005C0000844016811F0020F0CBF511E510801616F
:1005D0007047012A826814BF22EA01011143816039
:1005E000704721F03F031844036813F0020F18BF4F
:1005F000520803699A1A11F0010F0CBF8261C2619F
:10060000704700002DE9F041464F0446386810F06D
:10061000E04F05D0386844490840B0F1805F04D10C
:1006200014F0004F18BFBDE8F081396E386F21F427
:10063000800141F4006540F400663D663E6715F0B8
:10064000020F02D014F0020F04D025EA040010F0CB
:10065000010F19D064F0030005403D6616F0004F0D
:1006600008D006F0700030281CBF702030EA060069
:1006700006D102E03020A84302D14FF4805001E0BF
:100680004FF40020FFF746FE25F4FE6043F2F071C0
:1006900020F44050214041EA0008244824493040D9
:1006A0002140084304F0080140EAC1054020B86534
:1006B00015F0004F18BF3D67C7F8608008BF3D6761
:1006C0001020FFF727FE1B4928F0030020F0F860F8
:1006D0002140014325F0FC5004F0FC52104314F07B
:1006E000804F08BF20F0804206D0134A20F48000DB
:1006F000224041F48001024314F4006F0BD14FF407
:1007000000403B6D13F0400F01D1401EF9D121F4A0
:10071000006122F4006239663A67BDE8F0411020BA
:10072000FFF7F8BD00E00F400000FF708FDFFF7F94
:10073000302000800300C0070000404003490A6EDB
:1007400022F4F012104308667047000000E00F40EA
:10075000064A010F52F821100A6883B2C0F3044020
:1007600003FA00F010430860704700008C07000097
:1007700010E00F4014E00F401CE00F4010E00F406D
:1007800040E00F4044E00F4048E00F4000E10F40E0
:1007900004E10F4008E10F4010E10F4014E10F4069
:1007A00018E10F4020E10F4024E10F4028E10F4005
:1007B00040420F0000201C0080841E0000802500A5
:1007C000999E36000040380000093D0000803E0040
:1007D00000004B00404B4C0000204E00808D5B0021
:1007E00000C05D000080700000127A0000007D00F3
:1007F00080969800001BB7000080BB00C0E8CE00C8
:10080000647ADA000024F4000000FA002C080000EA
:100810000000002008000000B402000034080000BE
:100820000800002060010000D0020000000000006D
:0408300000000000C4
:040000050000026D88
:00000001FF
