:020000040000FA
:10000000680100206D020000710200007302000010
:10001000750200007502000075020000000000007B
:100020000000000000000000000000007502000059
:10003000750200000000000075020000750200005B
:1000400075020000750200007502000075020000D4
:1000500075020000750200007502000075020000C4
:1000600075020000750200007502000075020000B4
:1000700075020000750200007502000075020000A4
:1000800075020000750200007502000049030000BF
:100090007502000075020000750200007502000084
:1000A0007502000075020000750200007502000074
:1000B0007502000075020000750200007502000064
:1000C0007502000075020000750200007502000054
:1000D0007502000075020000750200007502000044
:1000E0007502000075020000750200007502000034
:1000F0007502000075020000750200007502000024
:100100007502000075020000750200007502000013
:100110007502000075020000750200007502000003
:1001200075020000750200007502000075020000F3
:1001300075020000750200007502000075020000E3
:1001400000000000000000000000000000000000AF
:1001500075020000750200007502000075020000C3
:10016000000000000000000000000000000000008F
:10017000000000000000000000000000000000007F
:10018000000000000000000000000000000000006F
:10019000000000000000000000000000000000005F
:1001A000000000000000000000000000000000004F
:1001B0007502000075020000750200007502000063
:1001C0007502000075020000750200007502000053
:1001D0007502000075020000750200007502000043
:1001E0007502000075020000750200007502000033
:1001F0007502000075020000750200007502000023
:100200007502000075020000750200000000000089
:100210007502000075020000750200007502000002
:1002200075020000750200007502000075020000F2
:1002300075020000750200007502000075020000E2
:1002400075020000750200007502000075020000D2
:1002500075020000750200007502000075020000C2
:1002600075020000750200007502000000F004B87D
:10027000FEE7FEE7FEE7000000F002F800F03AF8C3
:100280000AA090E8000C82448344AAF10107DA45F1
:1002900001D100F02FF8AFF2090EBAE80F0013F009
:1002A000010F18BFFB1A43F001031847680500004F
:1002B00088050000103A24BF78C878C1FAD85207E0
:1002C00024BF30C830C144BF04680C6070470000D0
:1002D0000023002400250026103A28BF78C1FBD84F
:1002E000520728BF30C148BF0B6070471FB51FBD04
:1002F00010B510BD00F081F81146FFF7F7FF00F0D0
:100300003CF800F09FF803B4FFF7F2FF03BC00F0E5
:10031000A3F800000138FDD170470000EFF3108012
:1003200072B67047EFF3108062B6704730BF704707
:1003300002480349014A034B70470000680000204F
:10034000680100206800002010B501214FF0402016
:1003500000F0F5F8214908600846006880F00100C7
:1003600008600846027801214FF0402000F0F8F8BC
:10037000FF211B4800F0F1F910BD1A4800F02CF9DC
:10038000194800F0C5F9194800F0C2F901214FF0F1
:10039000402000F0D7F80221114800F0C9F94FF4CD
:1003A0007A62FF210E4800F0DEF901210C4800F0CE
:1003B000D6F9232000F0D7F800F009F9FF2108480A
:1003C00000F0C4F90A48FFF7A5FF4FF4FA52FF21E5
:1003D000034800F0C8F900BFFEE70000000000205D
:1003E00000000340803B8007010000200100101046
:1003F0005273CB00704770477047754600F028F87D
:10040000AE4605006946534620F00700854618B001
:1004100020B5FFF78DFFBDE820404FF000064FF0FC
:1004200000074FF000084FF0000B21F00701AC4629
:10043000ACE8C009ACE8C009ACE8C009ACE8C00948
:100440008D4670470446AFF300802046FFF75BFF00
:10045000004870470400002001491820ABBEFEE7A9
:10046000260002007047D0F8003412F0010F0CBFD4
:100470008B430B43C0F8003412F0020FD0F8202455
:100480000CBF22EA01011143C0F820147047D0F8D4
:1004900000C512F0010F0CBF2CEA010C4CEA010C54
:1004A000C0F800C5D0F804C512F0020F0CBF2CEA4A
:1004B000010C4CEA010CC0F804C5D0F808C512F0D4
:1004C000040F0CBF2CEA010C4CEA010CC0F808C563
:1004D00012F0080FD0F818250CBF8A430A43C0F861
:1004E0001825D0F80C2513F0010F0CBF8A430A43DE
:1004F000C0F80C25D0F8102513F0020F0CBF8A436A
:100500000A43C0F81025D0F8142513F0040F0CBFCF
:100510008A430A43C0F81425D0F81C2513F0080FAD
:100520000CBF8A430A43C0F81C25D0F82825002BAD
:1005300014BF22EA01011143C0F82815704750F892
:100540002100704730B504460D460122FFF78BFFAE
:1005500029462046BDE8304008230122FFF797BF17
:1005600040F8212070474FF0E022042804BFD2F861
:10057000240D40F4803005D0052806D1D2F8240D92
:1005800040F40030C2F8240D7047062801BFD2F8AD
:10059000240D40F48020C2F8240D70470F2801BFBD
:1005A000106940F0020010617047A0F110010123B2
:1005B0001F299EBF03FA01F0C2F8000170473028DE
:1005C00022BF303803FA00F0C2F80401704710B5BA
:1005D000FFF7A8FEC0B210BD2DE9F041464F04461A
:1005E000386810F0E04F05D0386844490840B0F151
:1005F000805F04D114F0004F18BFBDE8F081396E60
:10060000386F21F4800141F4006540F400663D66D6
:100610003E6715F0020F02D014F0020F04D025EA55
:10062000040010F0010F19D064F0030005403D668E
:1006300016F0004F08D006F0700030281CBF702064
:1006400030EA060006D102E03020A84302D14FF480
:10065000805001E04FF40020FFF75CFE25F4FE60BF
:1006600043F2F07120F44050214041EA0008244850
:10067000244930402140084304F0080140EAC10504
:100680004020B86515F0004F18BF3D67C7F860807F
:1006900008BF3D671020FFF73DFE1B4928F003000F
:1006A00020F0F8602140014325F0FC5004F0FC529A
:1006B000104314F0804F08BF20F0804206D0134A48
:1006C00020F48000224041F48001024314F4006FC2
:1006D0000BD14FF400403B6D13F0400F01D1401E91
:1006E000F9D121F4006122F4006239663A67BDE86D
:1006F000F0411020FFF70EBE00E00F400000FF7039
:100700008FDFFF7F302000800300C00700004040E3
:10071000064A010F52F821100A6883B2C0F3044060
:1007200003FA00F0104308607047000094070000CF
:10073000C26822F0010222F48072C2600A0E0260D6
:10074000CAB24260C1F3072181607047C26840F2BB
:10075000011319401143C1607047416270478269BB
:1007600011438161704711F0FF0F18BF826211F4CD
:100770007F4F18BFC262704710E00F4014E00F4077
:100780001CE00F4010E00F4040E00F4044E00F40FD
:1007900048E00F4000E10F4004E10F4008E10F4046
:1007A00010E10F4014E10F4018E10F4020E10F402D
:1007B00024E10F4028E10F4040420F0000201C00C0
:1007C00080841E0000802500999E3600004038007D
:1007D00000093D0000803E0000004B00404B4C00F3
:1007E00000204E00808D5B0000C05D000080700026
:1007F00000127A0000007D0080969800001BB70070
:100800000080BB00C0E8CE00647ADA000024F40067
:100810000000FA003408000000000020040000007E
:10082000B402000038080000040000206401000049
:08083000D002000000000000EE
:040000050000026D88
:00000001FF
